{
  "_format": "hh-sol-artifact-1",
  "contractName": "NFT",
  "sourceName": "contracts/NFT.sol",
  "abi": [
    {
      "inputs": [
        {
          "internalType": "address",
          "name": "_tokenaddress",
          "type": "address"
        }
      ],
      "stateMutability": "nonpayable",
      "type": "constructor"
    },
    {
      "anonymous": false,
      "inputs": [
        {
          "indexed": true,
          "internalType": "address",
          "name": "owner",
          "type": "address"
        },
        {
          "indexed": true,
          "internalType": "address",
          "name": "approved",
          "type": "address"
        },
        {
          "indexed": true,
          "internalType": "uint256",
          "name": "tokenId",
          "type": "uint256"
        }
      ],
      "name": "Approval",
      "type": "event"
    },
    {
      "anonymous": false,
      "inputs": [
        {
          "indexed": true,
          "internalType": "address",
          "name": "owner",
          "type": "address"
        },
        {
          "indexed": true,
          "internalType": "address",
          "name": "operator",
          "type": "address"
        },
        {
          "indexed": false,
          "internalType": "bool",
          "name": "approved",
          "type": "bool"
        }
      ],
      "name": "ApprovalForAll",
      "type": "event"
    },
    {
      "anonymous": false,
      "inputs": [
        {
          "indexed": false,
          "internalType": "address",
          "name": "_address",
          "type": "address"
        },
        {
          "indexed": false,
          "internalType": "uint256",
          "name": "tokenId",
          "type": "uint256"
        },
        {
          "indexed": false,
          "internalType": "uint256",
          "name": "price",
          "type": "uint256"
        }
      ],
      "name": "MintedNft",
      "type": "event"
    },
    {
      "anonymous": false,
      "inputs": [
        {
          "indexed": true,
          "internalType": "address",
          "name": "previousOwner",
          "type": "address"
        },
        {
          "indexed": true,
          "internalType": "address",
          "name": "newOwner",
          "type": "address"
        }
      ],
      "name": "OwnershipTransferred",
      "type": "event"
    },
    {
      "anonymous": false,
      "inputs": [
        {
          "indexed": true,
          "internalType": "address",
          "name": "from",
          "type": "address"
        },
        {
          "indexed": true,
          "internalType": "address",
          "name": "to",
          "type": "address"
        },
        {
          "indexed": true,
          "internalType": "uint256",
          "name": "tokenId",
          "type": "uint256"
        }
      ],
      "name": "Transfer",
      "type": "event"
    },
    {
      "inputs": [
        {
          "internalType": "uint256",
          "name": "",
          "type": "uint256"
        }
      ],
      "name": "NftData",
      "outputs": [
        {
          "internalType": "string",
          "name": "metaDataHash",
          "type": "string"
        }
      ],
      "stateMutability": "view",
      "type": "function"
    },
    {
      "inputs": [
        {
          "internalType": "address",
          "name": "to",
          "type": "address"
        },
        {
          "internalType": "uint256",
          "name": "tokenId",
          "type": "uint256"
        }
      ],
      "name": "approve",
      "outputs": [],
      "stateMutability": "nonpayable",
      "type": "function"
    },
    {
      "inputs": [
        {
          "internalType": "address",
          "name": "owner",
          "type": "address"
        }
      ],
      "name": "balanceOf",
      "outputs": [
        {
          "internalType": "uint256",
          "name": "",
          "type": "uint256"
        }
      ],
      "stateMutability": "view",
      "type": "function"
    },
    {
      "inputs": [],
      "name": "baseURI",
      "outputs": [
        {
          "internalType": "string",
          "name": "",
          "type": "string"
        }
      ],
      "stateMutability": "view",
      "type": "function"
    },
    {
      "inputs": [
        {
          "internalType": "uint256",
          "name": "tokenId",
          "type": "uint256"
        }
      ],
      "name": "getApproved",
      "outputs": [
        {
          "internalType": "address",
          "name": "",
          "type": "address"
        }
      ],
      "stateMutability": "view",
      "type": "function"
    },
    {
      "inputs": [
        {
          "internalType": "address",
          "name": "owner",
          "type": "address"
        },
        {
          "internalType": "address",
          "name": "operator",
          "type": "address"
        }
      ],
      "name": "isApprovedForAll",
      "outputs": [
        {
          "internalType": "bool",
          "name": "",
          "type": "bool"
        }
      ],
      "stateMutability": "view",
      "type": "function"
    },
    {
      "inputs": [
        {
          "internalType": "uint256",
          "name": "tokenId",
          "type": "uint256"
        },
        {
          "internalType": "string",
          "name": "_metadataHash",
          "type": "string"
        }
      ],
      "name": "mintNft",
      "outputs": [],
      "stateMutability": "nonpayable",
      "type": "function"
    },
    {
      "inputs": [],
      "name": "name",
      "outputs": [
        {
          "internalType": "string",
          "name": "",
          "type": "string"
        }
      ],
      "stateMutability": "view",
      "type": "function"
    },
    {
      "inputs": [],
      "name": "owner",
      "outputs": [
        {
          "internalType": "address",
          "name": "",
          "type": "address"
        }
      ],
      "stateMutability": "view",
      "type": "function"
    },
    {
      "inputs": [
        {
          "internalType": "uint256",
          "name": "tokenId",
          "type": "uint256"
        }
      ],
      "name": "ownerOf",
      "outputs": [
        {
          "internalType": "address",
          "name": "",
          "type": "address"
        }
      ],
      "stateMutability": "view",
      "type": "function"
    },
    {
      "inputs": [],
      "name": "price",
      "outputs": [
        {
          "internalType": "uint256",
          "name": "",
          "type": "uint256"
        }
      ],
      "stateMutability": "view",
      "type": "function"
    },
    {
      "inputs": [],
      "name": "renounceOwnership",
      "outputs": [],
      "stateMutability": "nonpayable",
      "type": "function"
    },
    {
      "inputs": [
        {
          "internalType": "address",
          "name": "from",
          "type": "address"
        },
        {
          "internalType": "address",
          "name": "to",
          "type": "address"
        },
        {
          "internalType": "uint256",
          "name": "tokenId",
          "type": "uint256"
        }
      ],
      "name": "safeTransferFrom",
      "outputs": [],
      "stateMutability": "nonpayable",
      "type": "function"
    },
    {
      "inputs": [
        {
          "internalType": "address",
          "name": "from",
          "type": "address"
        },
        {
          "internalType": "address",
          "name": "to",
          "type": "address"
        },
        {
          "internalType": "uint256",
          "name": "tokenId",
          "type": "uint256"
        },
        {
          "internalType": "bytes",
          "name": "data",
          "type": "bytes"
        }
      ],
      "name": "safeTransferFrom",
      "outputs": [],
      "stateMutability": "nonpayable",
      "type": "function"
    },
    {
      "inputs": [
        {
          "internalType": "address",
          "name": "operator",
          "type": "address"
        },
        {
          "internalType": "bool",
          "name": "approved",
          "type": "bool"
        }
      ],
      "name": "setApprovalForAll",
      "outputs": [],
      "stateMutability": "nonpayable",
      "type": "function"
    },
    {
      "inputs": [
        {
          "internalType": "bytes4",
          "name": "interfaceId",
          "type": "bytes4"
        }
      ],
      "name": "supportsInterface",
      "outputs": [
        {
          "internalType": "bool",
          "name": "",
          "type": "bool"
        }
      ],
      "stateMutability": "view",
      "type": "function"
    },
    {
      "inputs": [],
      "name": "symbol",
      "outputs": [
        {
          "internalType": "string",
          "name": "",
          "type": "string"
        }
      ],
      "stateMutability": "view",
      "type": "function"
    },
    {
      "inputs": [],
      "name": "tokenAddress",
      "outputs": [
        {
          "internalType": "contract IERC20",
          "name": "",
          "type": "address"
        }
      ],
      "stateMutability": "view",
      "type": "function"
    },
    {
      "inputs": [
        {
          "internalType": "uint256",
          "name": "tokenId",
          "type": "uint256"
        }
      ],
      "name": "tokenURI",
      "outputs": [
        {
          "internalType": "string",
          "name": "",
          "type": "string"
        }
      ],
      "stateMutability": "view",
      "type": "function"
    },
    {
      "inputs": [
        {
          "internalType": "address",
          "name": "from",
          "type": "address"
        },
        {
          "internalType": "address",
          "name": "to",
          "type": "address"
        },
        {
          "internalType": "uint256",
          "name": "tokenId",
          "type": "uint256"
        }
      ],
      "name": "transferFrom",
      "outputs": [],
      "stateMutability": "nonpayable",
      "type": "function"
    },
    {
      "inputs": [
        {
          "internalType": "address",
          "name": "newOwner",
          "type": "address"
        }
      ],
      "name": "transferOwnership",
      "outputs": [],
      "stateMutability": "nonpayable",
      "type": "function"
    }
  ],
  "bytecode": "0x60806040526005600a553480156200001657600080fd5b50604051620034093803806200340983398181016040528101906200003c919062000299565b6040518060400160405280600581526020017f5a65646f6e0000000000000000000000000000000000000000000000000000008152506040518060400160405280600381526020017f5a445400000000000000000000000000000000000000000000000000000000008152508160009081620000b9919062000545565b508060019081620000cb919062000545565b505050620000ee620000e26200016160201b60201c565b6200016960201b60201c565b80600860006101000a81548173ffffffffffffffffffffffffffffffffffffffff021916908373ffffffffffffffffffffffffffffffffffffffff160217905550604051806060016040528060228152602001620033e7602291396009908162000159919062000545565b50506200062c565b600033905090565b6000600760009054906101000a900473ffffffffffffffffffffffffffffffffffffffff16905081600760006101000a81548173ffffffffffffffffffffffffffffffffffffffff021916908373ffffffffffffffffffffffffffffffffffffffff1602179055508173ffffffffffffffffffffffffffffffffffffffff168173ffffffffffffffffffffffffffffffffffffffff167f8be0079c531659141344cd1fd0a4f28419497f9722a3daafe3b4186f6b6457e060405160405180910390a35050565b600080fd5b600073ffffffffffffffffffffffffffffffffffffffff82169050919050565b6000620002618262000234565b9050919050565b620002738162000254565b81146200027f57600080fd5b50565b600081519050620002938162000268565b92915050565b600060208284031215620002b257620002b16200022f565b5b6000620002c28482850162000282565b91505092915050565b600081519050919050565b7f4e487b7100000000000000000000000000000000000000000000000000000000600052604160045260246000fd5b7f4e487b7100000000000000000000000000000000000000000000000000000000600052602260045260246000fd5b600060028204905060018216806200034d57607f821691505b60208210810362000363576200036262000305565b5b50919050565b60008190508160005260206000209050919050565b60006020601f8301049050919050565b600082821b905092915050565b600060088302620003cd7fffffffffffffffffffffffffffffffffffffffffffffffffffffffffffffffff826200038e565b620003d986836200038e565b95508019841693508086168417925050509392505050565b6000819050919050565b6000819050919050565b600062000426620004206200041a84620003f1565b620003fb565b620003f1565b9050919050565b6000819050919050565b620004428362000405565b6200045a62000451826200042d565b8484546200039b565b825550505050565b600090565b6200047162000462565b6200047e81848462000437565b505050565b5b81811015620004a6576200049a60008262000467565b60018101905062000484565b5050565b601f821115620004f557620004bf8162000369565b620004ca846200037e565b81016020851015620004da578190505b620004f2620004e9856200037e565b83018262000483565b50505b505050565b600082821c905092915050565b60006200051a60001984600802620004fa565b1980831691505092915050565b600062000535838362000507565b9150826002028217905092915050565b6200055082620002cb565b67ffffffffffffffff8111156200056c576200056b620002d6565b5b62000578825462000334565b62000585828285620004aa565b600060209050601f831160018114620005bd5760008415620005a8578287015190505b620005b4858262000527565b86555062000624565b601f198416620005cd8662000369565b60005b82811015620005f757848901518255600182019150602085019450602081019050620005d0565b8683101562000617578489015162000613601f89168262000507565b8355505b6001600288020188555050505b505050505050565b612dab806200063c6000396000f3fe608060405234801561001057600080fd5b50600436106101375760003560e01c8063715018a6116100b8578063a035b1fe1161007c578063a035b1fe1461033c578063a22cb4651461035a578063b88d4fde14610376578063c87b56dd14610392578063e985e9c5146103c2578063f2fde38b146103f257610137565b8063715018a6146102bc57806376052e04146102c65780638da5cb5b146102e257806395d89b41146103005780639d76ea581461031e57610137565b806342842e0e116100ff57806342842e0e146101f25780634d48417c1461020e5780636352211e1461023e5780636c0360eb1461026e57806370a082311461028c57610137565b806301ffc9a71461013c57806306fdde031461016c578063081812fc1461018a578063095ea7b3146101ba57806323b872dd146101d6575b600080fd5b61015660048036038101906101519190611a54565b61040e565b6040516101639190611a9c565b60405180910390f35b6101746104f0565b6040516101819190611b47565b60405180910390f35b6101a4600480360381019061019f9190611b9f565b610582565b6040516101b19190611c0d565b60405180910390f35b6101d460048036038101906101cf9190611c54565b6105c8565b005b6101f060048036038101906101eb9190611c94565b6106df565b005b61020c60048036038101906102079190611c94565b61073f565b005b61022860048036038101906102239190611b9f565b61075f565b6040516102359190611b47565b60405180910390f35b61025860048036038101906102539190611b9f565b610805565b6040516102659190611c0d565b60405180910390f35b6102766108b6565b6040516102839190611b47565b60405180910390f35b6102a660048036038101906102a19190611ce7565b610944565b6040516102b39190611d23565b60405180910390f35b6102c46109fb565b005b6102e060048036038101906102db9190611e73565b610a0f565b005b6102ea610b41565b6040516102f79190611c0d565b60405180910390f35b610308610b6b565b6040516103159190611b47565b60405180910390f35b610326610bfd565b6040516103339190611f2e565b60405180910390f35b610344610c23565b6040516103519190611d23565b60405180910390f35b610374600480360381019061036f9190611f75565b610c29565b005b610390600480360381019061038b9190612056565b610c3f565b005b6103ac60048036038101906103a79190611b9f565b610ca1565b6040516103b99190611b47565b60405180910390f35b6103dc60048036038101906103d791906120d9565b610ce2565b6040516103e99190611a9c565b60405180910390f35b61040c60048036038101906104079190611ce7565b610d76565b005b60007f80ac58cd000000000000000000000000000000000000000000000000000000007bffffffffffffffffffffffffffffffffffffffffffffffffffffffff1916827bffffffffffffffffffffffffffffffffffffffffffffffffffffffff191614806104d957507f5b5e139f000000000000000000000000000000000000000000000000000000007bffffffffffffffffffffffffffffffffffffffffffffffffffffffff1916827bffffffffffffffffffffffffffffffffffffffffffffffffffffffff1916145b806104e957506104e882610df9565b5b9050919050565b6060600080546104ff90612148565b80601f016020809104026020016040519081016040528092919081815260200182805461052b90612148565b80156105785780601f1061054d57610100808354040283529160200191610578565b820191906000526020600020905b81548152906001019060200180831161055b57829003601f168201915b5050505050905090565b600061058d82610e63565b6004600083815260200190815260200160002060009054906101000a900473ffffffffffffffffffffffffffffffffffffffff169050919050565b60006105d382610805565b90508073ffffffffffffffffffffffffffffffffffffffff168373ffffffffffffffffffffffffffffffffffffffff1603610643576040517f08c379a000000000000000000000000000000000000000000000000000000000815260040161063a906121eb565b60405180910390fd5b8073ffffffffffffffffffffffffffffffffffffffff16610662610eae565b73ffffffffffffffffffffffffffffffffffffffff16148061069157506106908161068b610eae565b610ce2565b5b6106d0576040517f08c379a00000000000000000000000000000000000000000000000000000000081526004016106c79061227d565b60405180910390fd5b6106da8383610eb6565b505050565b6106f06106ea610eae565b82610f6f565b61072f576040517f08c379a00000000000000000000000000000000000000000000000000000000081526004016107269061230f565b60405180910390fd5b61073a838383611004565b505050565b61075a83838360405180602001604052806000815250610c3f565b505050565b600b60205280600052604060002060009150905080600001805461078290612148565b80601f01602080910402602001604051908101604052809291908181526020018280546107ae90612148565b80156107fb5780601f106107d0576101008083540402835291602001916107fb565b820191906000526020600020905b8154815290600101906020018083116107de57829003601f168201915b5050505050905081565b6000806002600084815260200190815260200160002060009054906101000a900473ffffffffffffffffffffffffffffffffffffffff169050600073ffffffffffffffffffffffffffffffffffffffff168173ffffffffffffffffffffffffffffffffffffffff16036108ad576040517f08c379a00000000000000000000000000000000000000000000000000000000081526004016108a49061237b565b60405180910390fd5b80915050919050565b600980546108c390612148565b80601f01602080910402602001604051908101604052809291908181526020018280546108ef90612148565b801561093c5780601f106109115761010080835404028352916020019161093c565b820191906000526020600020905b81548152906001019060200180831161091f57829003601f168201915b505050505081565b60008073ffffffffffffffffffffffffffffffffffffffff168273ffffffffffffffffffffffffffffffffffffffff16036109b4576040517f08c379a00000000000000000000000000000000000000000000000000000000081526004016109ab9061240d565b60405180910390fd5b600360008373ffffffffffffffffffffffffffffffffffffffff1673ffffffffffffffffffffffffffffffffffffffff168152602001908152602001600020549050919050565b610a0361126a565b610a0d60006112e8565b565b600860009054906101000a900473ffffffffffffffffffffffffffffffffffffffff1673ffffffffffffffffffffffffffffffffffffffff166323b872dd33610a56610b41565b600a546040518463ffffffff1660e01b8152600401610a779392919061242d565b6020604051808303816000875af1158015610a96573d6000803e3d6000fd5b505050506040513d601f19601f82011682018060405250810190610aba9190612479565b50610ac533836113ae565b604051806020016040528082815250600b60008481526020019081526020016000206000820151816000019081610afc9190612648565b509050507f579010ef547469260d97e6dddf7a3f5a40071920bd9f292a225c404cdd6460f33383600a54604051610b359392919061271a565b60405180910390a15050565b6000600760009054906101000a900473ffffffffffffffffffffffffffffffffffffffff16905090565b606060018054610b7a90612148565b80601f0160208091040260200160405190810160405280929190818152602001828054610ba690612148565b8015610bf35780601f10610bc857610100808354040283529160200191610bf3565b820191906000526020600020905b815481529060010190602001808311610bd657829003601f168201915b5050505050905090565b600860009054906101000a900473ffffffffffffffffffffffffffffffffffffffff1681565b600a5481565b610c3b610c34610eae565b83836113cc565b5050565b610c50610c4a610eae565b83610f6f565b610c8f576040517f08c379a0000000000000000000000000000000000000000000000000000000008152600401610c869061230f565b60405180910390fd5b610c9b84848484611538565b50505050565b60606009600b6000848152602001908152602001600020600001604051602001610ccc9291906127df565b6040516020818303038152906040529050919050565b6000600560008473ffffffffffffffffffffffffffffffffffffffff1673ffffffffffffffffffffffffffffffffffffffff16815260200190815260200160002060008373ffffffffffffffffffffffffffffffffffffffff1673ffffffffffffffffffffffffffffffffffffffff16815260200190815260200160002060009054906101000a900460ff16905092915050565b610d7e61126a565b600073ffffffffffffffffffffffffffffffffffffffff168173ffffffffffffffffffffffffffffffffffffffff1603610ded576040517f08c379a0000000000000000000000000000000000000000000000000000000008152600401610de490612875565b60405180910390fd5b610df6816112e8565b50565b60007f01ffc9a7000000000000000000000000000000000000000000000000000000007bffffffffffffffffffffffffffffffffffffffffffffffffffffffff1916827bffffffffffffffffffffffffffffffffffffffffffffffffffffffff1916149050919050565b610e6c81611594565b610eab576040517f08c379a0000000000000000000000000000000000000000000000000000000008152600401610ea29061237b565b60405180910390fd5b50565b600033905090565b816004600083815260200190815260200160002060006101000a81548173ffffffffffffffffffffffffffffffffffffffff021916908373ffffffffffffffffffffffffffffffffffffffff160217905550808273ffffffffffffffffffffffffffffffffffffffff16610f2983610805565b73ffffffffffffffffffffffffffffffffffffffff167f8c5be1e5ebec7d5bd14f71427d1e84f3dd0314c0f7b2291e5b200ac8c7c3b92560405160405180910390a45050565b600080610f7b83610805565b90508073ffffffffffffffffffffffffffffffffffffffff168473ffffffffffffffffffffffffffffffffffffffff161480610fbd5750610fbc8185610ce2565b5b80610ffb57508373ffffffffffffffffffffffffffffffffffffffff16610fe384610582565b73ffffffffffffffffffffffffffffffffffffffff16145b91505092915050565b8273ffffffffffffffffffffffffffffffffffffffff1661102482610805565b73ffffffffffffffffffffffffffffffffffffffff161461107a576040517f08c379a000000000000000000000000000000000000000000000000000000000815260040161107190612907565b60405180910390fd5b600073ffffffffffffffffffffffffffffffffffffffff168273ffffffffffffffffffffffffffffffffffffffff16036110e9576040517f08c379a00000000000000000000000000000000000000000000000000000000081526004016110e090612999565b60405180910390fd5b6110f4838383611600565b6110ff600082610eb6565b6001600360008573ffffffffffffffffffffffffffffffffffffffff1673ffffffffffffffffffffffffffffffffffffffff168152602001908152602001600020600082825461114f91906129e8565b925050819055506001600360008473ffffffffffffffffffffffffffffffffffffffff1673ffffffffffffffffffffffffffffffffffffffff16815260200190815260200160002060008282546111a69190612a1c565b92505081905550816002600083815260200190815260200160002060006101000a81548173ffffffffffffffffffffffffffffffffffffffff021916908373ffffffffffffffffffffffffffffffffffffffff160217905550808273ffffffffffffffffffffffffffffffffffffffff168473ffffffffffffffffffffffffffffffffffffffff167fddf252ad1be2c89b69c2b068fc378daa952ba7f163c4a11628f55a4df523b3ef60405160405180910390a4611265838383611605565b505050565b611272610eae565b73ffffffffffffffffffffffffffffffffffffffff16611290610b41565b73ffffffffffffffffffffffffffffffffffffffff16146112e6576040517f08c379a00000000000000000000000000000000000000000000000000000000081526004016112dd90612a9c565b60405180910390fd5b565b6000600760009054906101000a900473ffffffffffffffffffffffffffffffffffffffff16905081600760006101000a81548173ffffffffffffffffffffffffffffffffffffffff021916908373ffffffffffffffffffffffffffffffffffffffff1602179055508173ffffffffffffffffffffffffffffffffffffffff168173ffffffffffffffffffffffffffffffffffffffff167f8be0079c531659141344cd1fd0a4f28419497f9722a3daafe3b4186f6b6457e060405160405180910390a35050565b6113c882826040518060200160405280600081525061160a565b5050565b8173ffffffffffffffffffffffffffffffffffffffff168373ffffffffffffffffffffffffffffffffffffffff160361143a576040517f08c379a000000000000000000000000000000000000000000000000000000000815260040161143190612b08565b60405180910390fd5b80600560008573ffffffffffffffffffffffffffffffffffffffff1673ffffffffffffffffffffffffffffffffffffffff16815260200190815260200160002060008473ffffffffffffffffffffffffffffffffffffffff1673ffffffffffffffffffffffffffffffffffffffff16815260200190815260200160002060006101000a81548160ff0219169083151502179055508173ffffffffffffffffffffffffffffffffffffffff168373ffffffffffffffffffffffffffffffffffffffff167f17307eab39ab6107e8899845ad3d59bd9653f200f220920489ca2b5937696c318360405161152b9190611a9c565b60405180910390a3505050565b611543848484611004565b61154f84848484611665565b61158e576040517f08c379a000000000000000000000000000000000000000000000000000000000815260040161158590612b9a565b60405180910390fd5b50505050565b60008073ffffffffffffffffffffffffffffffffffffffff166002600084815260200190815260200160002060009054906101000a900473ffffffffffffffffffffffffffffffffffffffff1673ffffffffffffffffffffffffffffffffffffffff1614159050919050565b505050565b505050565b61161483836117ec565b6116216000848484611665565b611660576040517f08c379a000000000000000000000000000000000000000000000000000000000815260040161165790612b9a565b60405180910390fd5b505050565b60006116868473ffffffffffffffffffffffffffffffffffffffff166119c5565b156117df578373ffffffffffffffffffffffffffffffffffffffff1663150b7a026116af610eae565b8786866040518563ffffffff1660e01b81526004016116d19493929190612c0f565b6020604051808303816000875af192505050801561170d57506040513d601f19601f8201168201806040525081019061170a9190612c70565b60015b61178f573d806000811461173d576040519150601f19603f3d011682016040523d82523d6000602084013e611742565b606091505b506000815103611787576040517f08c379a000000000000000000000000000000000000000000000000000000000815260040161177e90612b9a565b60405180910390fd5b805181602001fd5b63150b7a0260e01b7bffffffffffffffffffffffffffffffffffffffffffffffffffffffff1916817bffffffffffffffffffffffffffffffffffffffffffffffffffffffff1916149150506117e4565b600190505b949350505050565b600073ffffffffffffffffffffffffffffffffffffffff168273ffffffffffffffffffffffffffffffffffffffff160361185b576040517f08c379a000000000000000000000000000000000000000000000000000000000815260040161185290612ce9565b60405180910390fd5b61186481611594565b156118a4576040517f08c379a000000000000000000000000000000000000000000000000000000000815260040161189b90612d55565b60405180910390fd5b6118b060008383611600565b6001600360008473ffffffffffffffffffffffffffffffffffffffff1673ffffffffffffffffffffffffffffffffffffffff16815260200190815260200160002060008282546119009190612a1c565b92505081905550816002600083815260200190815260200160002060006101000a81548173ffffffffffffffffffffffffffffffffffffffff021916908373ffffffffffffffffffffffffffffffffffffffff160217905550808273ffffffffffffffffffffffffffffffffffffffff16600073ffffffffffffffffffffffffffffffffffffffff167fddf252ad1be2c89b69c2b068fc378daa952ba7f163c4a11628f55a4df523b3ef60405160405180910390a46119c160008383611605565b5050565b6000808273ffffffffffffffffffffffffffffffffffffffff163b119050919050565b6000604051905090565b600080fd5b600080fd5b60007fffffffff0000000000000000000000000000000000000000000000000000000082169050919050565b611a31816119fc565b8114611a3c57600080fd5b50565b600081359050611a4e81611a28565b92915050565b600060208284031215611a6a57611a696119f2565b5b6000611a7884828501611a3f565b91505092915050565b60008115159050919050565b611a9681611a81565b82525050565b6000602082019050611ab16000830184611a8d565b92915050565b600081519050919050565b600082825260208201905092915050565b60005b83811015611af1578082015181840152602081019050611ad6565b60008484015250505050565b6000601f19601f8301169050919050565b6000611b1982611ab7565b611b238185611ac2565b9350611b33818560208601611ad3565b611b3c81611afd565b840191505092915050565b60006020820190508181036000830152611b618184611b0e565b905092915050565b6000819050919050565b611b7c81611b69565b8114611b8757600080fd5b50565b600081359050611b9981611b73565b92915050565b600060208284031215611bb557611bb46119f2565b5b6000611bc384828501611b8a565b91505092915050565b600073ffffffffffffffffffffffffffffffffffffffff82169050919050565b6000611bf782611bcc565b9050919050565b611c0781611bec565b82525050565b6000602082019050611c226000830184611bfe565b92915050565b611c3181611bec565b8114611c3c57600080fd5b50565b600081359050611c4e81611c28565b92915050565b60008060408385031215611c6b57611c6a6119f2565b5b6000611c7985828601611c3f565b9250506020611c8a85828601611b8a565b9150509250929050565b600080600060608486031215611cad57611cac6119f2565b5b6000611cbb86828701611c3f565b9350506020611ccc86828701611c3f565b9250506040611cdd86828701611b8a565b9150509250925092565b600060208284031215611cfd57611cfc6119f2565b5b6000611d0b84828501611c3f565b91505092915050565b611d1d81611b69565b82525050565b6000602082019050611d386000830184611d14565b92915050565b600080fd5b600080fd5b7f4e487b7100000000000000000000000000000000000000000000000000000000600052604160045260246000fd5b611d8082611afd565b810181811067ffffffffffffffff82111715611d9f57611d9e611d48565b5b80604052505050565b6000611db26119e8565b9050611dbe8282611d77565b919050565b600067ffffffffffffffff821115611dde57611ddd611d48565b5b611de782611afd565b9050602081019050919050565b82818337600083830152505050565b6000611e16611e1184611dc3565b611da8565b905082815260208101848484011115611e3257611e31611d43565b5b611e3d848285611df4565b509392505050565b600082601f830112611e5a57611e59611d3e565b5b8135611e6a848260208601611e03565b91505092915050565b60008060408385031215611e8a57611e896119f2565b5b6000611e9885828601611b8a565b925050602083013567ffffffffffffffff811115611eb957611eb86119f7565b5b611ec585828601611e45565b9150509250929050565b6000819050919050565b6000611ef4611eef611eea84611bcc565b611ecf565b611bcc565b9050919050565b6000611f0682611ed9565b9050919050565b6000611f1882611efb565b9050919050565b611f2881611f0d565b82525050565b6000602082019050611f436000830184611f1f565b92915050565b611f5281611a81565b8114611f5d57600080fd5b50565b600081359050611f6f81611f49565b92915050565b60008060408385031215611f8c57611f8b6119f2565b5b6000611f9a85828601611c3f565b9250506020611fab85828601611f60565b9150509250929050565b600067ffffffffffffffff821115611fd057611fcf611d48565b5b611fd982611afd565b9050602081019050919050565b6000611ff9611ff484611fb5565b611da8565b90508281526020810184848401111561201557612014611d43565b5b612020848285611df4565b509392505050565b600082601f83011261203d5761203c611d3e565b5b813561204d848260208601611fe6565b91505092915050565b600080600080608085870312156120705761206f6119f2565b5b600061207e87828801611c3f565b945050602061208f87828801611c3f565b93505060406120a087828801611b8a565b925050606085013567ffffffffffffffff8111156120c1576120c06119f7565b5b6120cd87828801612028565b91505092959194509250565b600080604083850312156120f0576120ef6119f2565b5b60006120fe85828601611c3f565b925050602061210f85828601611c3f565b9150509250929050565b7f4e487b7100000000000000000000000000000000000000000000000000000000600052602260045260246000fd5b6000600282049050600182168061216057607f821691505b60208210810361217357612172612119565b5b50919050565b7f4552433732313a20617070726f76616c20746f2063757272656e74206f776e6560008201527f7200000000000000000000000000000000000000000000000000000000000000602082015250565b60006121d5602183611ac2565b91506121e082612179565b604082019050919050565b60006020820190508181036000830152612204816121c8565b9050919050565b7f4552433732313a20617070726f76652063616c6c6572206973206e6f7420746f60008201527f6b656e206f776e6572206e6f7220617070726f76656420666f7220616c6c0000602082015250565b6000612267603e83611ac2565b91506122728261220b565b604082019050919050565b600060208201905081810360008301526122968161225a565b9050919050565b7f4552433732313a2063616c6c6572206973206e6f7420746f6b656e206f776e6560008201527f72206e6f7220617070726f766564000000000000000000000000000000000000602082015250565b60006122f9602e83611ac2565b91506123048261229d565b604082019050919050565b60006020820190508181036000830152612328816122ec565b9050919050565b7f4552433732313a20696e76616c696420746f6b656e2049440000000000000000600082015250565b6000612365601883611ac2565b91506123708261232f565b602082019050919050565b6000602082019050818103600083015261239481612358565b9050919050565b7f4552433732313a2061646472657373207a65726f206973206e6f74206120766160008201527f6c6964206f776e65720000000000000000000000000000000000000000000000602082015250565b60006123f7602983611ac2565b91506124028261239b565b604082019050919050565b60006020820190508181036000830152612426816123ea565b9050919050565b60006060820190506124426000830186611bfe565b61244f6020830185611bfe565b61245c6040830184611d14565b949350505050565b60008151905061247381611f49565b92915050565b60006020828403121561248f5761248e6119f2565b5b600061249d84828501612464565b91505092915050565b60008190508160005260206000209050919050565b60006020601f8301049050919050565b600082821b905092915050565b6000600883026125087fffffffffffffffffffffffffffffffffffffffffffffffffffffffffffffffff826124cb565b61251286836124cb565b95508019841693508086168417925050509392505050565b600061254561254061253b84611b69565b611ecf565b611b69565b9050919050565b6000819050919050565b61255f8361252a565b61257361256b8261254c565b8484546124d8565b825550505050565b600090565b61258861257b565b612593818484612556565b505050565b5b818110156125b7576125ac600082612580565b600181019050612599565b5050565b601f8211156125fc576125cd816124a6565b6125d6846124bb565b810160208510156125e5578190505b6125f96125f1856124bb565b830182612598565b50505b505050565b600082821c905092915050565b600061261f60001984600802612601565b1980831691505092915050565b6000612638838361260e565b9150826002028217905092915050565b61265182611ab7565b67ffffffffffffffff81111561266a57612669611d48565b5b6126748254612148565b61267f8282856125bb565b600060209050601f8311600181146126b257600084156126a0578287015190505b6126aa858261262c565b865550612712565b601f1984166126c0866124a6565b60005b828110156126e8578489015182556001820191506020850194506020810190506126c3565b868310156127055784890151612701601f89168261260e565b8355505b6001600288020188555050505b505050505050565b600060608201905061272f6000830186611bfe565b61273c6020830185611d14565b6127496040830184611d14565b949350505050565b600081905092915050565b6000815461276981612148565b6127738186612751565b9450600182166000811461278e57600181146127a3576127d6565b60ff19831686528115158202860193506127d6565b6127ac856124a6565b60005b838110156127ce578154818901526001820191506020810190506127af565b838801955050505b50505092915050565b60006127eb828561275c565b91506127f7828461275c565b91508190509392505050565b7f4f776e61626c653a206e6577206f776e657220697320746865207a65726f206160008201527f6464726573730000000000000000000000000000000000000000000000000000602082015250565b600061285f602683611ac2565b915061286a82612803565b604082019050919050565b6000602082019050818103600083015261288e81612852565b9050919050565b7f4552433732313a207472616e736665722066726f6d20696e636f72726563742060008201527f6f776e6572000000000000000000000000000000000000000000000000000000602082015250565b60006128f1602583611ac2565b91506128fc82612895565b604082019050919050565b60006020820190508181036000830152612920816128e4565b9050919050565b7f4552433732313a207472616e7366657220746f20746865207a65726f2061646460008201527f7265737300000000000000000000000000000000000000000000000000000000602082015250565b6000612983602483611ac2565b915061298e82612927565b604082019050919050565b600060208201905081810360008301526129b281612976565b9050919050565b7f4e487b7100000000000000000000000000000000000000000000000000000000600052601160045260246000fd5b60006129f382611b69565b91506129fe83611b69565b9250828203905081811115612a1657612a156129b9565b5b92915050565b6000612a2782611b69565b9150612a3283611b69565b9250828201905080821115612a4a57612a496129b9565b5b92915050565b7f4f776e61626c653a2063616c6c6572206973206e6f7420746865206f776e6572600082015250565b6000612a86602083611ac2565b9150612a9182612a50565b602082019050919050565b60006020820190508181036000830152612ab581612a79565b9050919050565b7f4552433732313a20617070726f766520746f2063616c6c657200000000000000600082015250565b6000612af2601983611ac2565b9150612afd82612abc565b602082019050919050565b60006020820190508181036000830152612b2181612ae5565b9050919050565b7f4552433732313a207472616e7366657220746f206e6f6e20455243373231526560008201527f63656976657220696d706c656d656e7465720000000000000000000000000000602082015250565b6000612b84603283611ac2565b9150612b8f82612b28565b604082019050919050565b60006020820190508181036000830152612bb381612b77565b9050919050565b600081519050919050565b600082825260208201905092915050565b6000612be182612bba565b612beb8185612bc5565b9350612bfb818560208601611ad3565b612c0481611afd565b840191505092915050565b6000608082019050612c246000830187611bfe565b612c316020830186611bfe565b612c3e6040830185611d14565b8181036060830152612c508184612bd6565b905095945050505050565b600081519050612c6a81611a28565b92915050565b600060208284031215612c8657612c856119f2565b5b6000612c9484828501612c5b565b91505092915050565b7f4552433732313a206d696e7420746f20746865207a65726f2061646472657373600082015250565b6000612cd3602083611ac2565b9150612cde82612c9d565b602082019050919050565b60006020820190508181036000830152612d0281612cc6565b9050919050565b7f4552433732313a20746f6b656e20616c7265616479206d696e74656400000000600082015250565b6000612d3f601c83611ac2565b9150612d4a82612d09565b602082019050919050565b60006020820190508181036000830152612d6e81612d32565b905091905056fea26469706673582212201a2eb3565ef2ffae21b6e2347c6e60ae6417812622b316284ebd1251562cbc0764736f6c6343000811003368747470733a2f2f676174657761792e70696e6174612e636c6f75642f697066732f",
  "linkReferences": {},
  "deployedLinkReferences": {}
}